:020000040800F2
:1000000000500020710500085D0400085F0400082E
:100010006104000863040008650400080000000093
:10002000000000000000000000000000670400085D
:1000300069040008000000006B0400086D0400085B
:10004000B9050008B9050008B9050008B905000898
:10005000B9050008B9050008B9050008B905000888
:10006000B9050008B9050008B9050008B905000878
:10007000B9050008B9050008B9050008B905000868
:10008000B9050008B9050008B9050008B905000858
:10009000B9050008B9050008B9050008B905000848
:1000A000B9050008B9050008B9050008B905000838
:1000B000B9050008B9050008B9050008B905000828
:1000C000B9050008B9050008B9050008B905000818
:1000D000B9050008B9050008B9050008B905000808
:1000E000B9050008B9050008B905000800000000BE
:1000F0000000000000000000000000000000000000
:0C01000000000000000000005FF808F1A3
:10010C0000B585B000230193029303931148124A62
:10011C00026083600122027303754FF46021C16198
:10012C004360026100F070FB68B904230193012362
:10013C0002930023039301A9064800F097FA28B90B
:10014C0005B05DF804FB00F00DF9EEE700F00AF9DC
:10015C00F6E700BF600000200028014000B587B022
:10016C00002302930393049305930268114B9A4264
:10017C0002D007B05DF804FB03F568439A6942F4BA
:10018C0080629A619A6902F480620092009A9A697C
:10019C0042F004029A619B6903F004030193019BF2
:1001AC00102302930323039302A9034800F00EFCCF
:1001BC00DFE700BF002801400008014030B589B0DE
:1001CC0000240494059406940794184B9A6942F001
:1001DC0020029A619A6902F020020192019A9A69AE
:1001EC0042F004029A619A6902F004020292029AA5
:1001FC009A6942F008029A619B6903F00803039321
:10020C00039B0B4D22464FF6FF71284600F0F0FC85
:10021C004FF6FF730493012305930694022307936F
:10022C0004A9284600F0D2FB09B030BD00100240F2
:10023C00000C014010B5002407E001220A4B33F8F2
:10024C0014100A4800F0D4FC0134052CF5DD002410
:10025C0007E00022064B33F81410044800F0C8FCE9
:10026C000134092CF5DD10BDF4180008000C014018
:10027C000019000810B582B00190FFF7DBFF094CA4
:10028C000022BDF80610204600F0B2FC0122BDF899
:10029C000410204600F0ACFC012000F0D3F902B0B1
:1002AC0010BD00BF000C0140092815D870B50E46D2
:1002BC000A4B1D5C002400E00134062C0BDCC4F15D
:1002CC00060345FA03F313F0010FF5D056F824009A
:1002DC00FFF7D0FFF0E770BD704700BF141900089E
:1002EC00C72833D82DE9F0410546194BA3FB00383C
:1002FC004FEA5817C8F34718642303FB1707BFB21C
:10030C00144EA6FB0737C7F3C707A6FB0036F60843
:10031C0006EB8606A0EB4606F6B2002406E0092D95
:10032C000DD80D493046FFF7BFFF0134132C0BDC01
:10033C00632DF4D909494046FFF7B6FFEFE70849AA
:10034C003846FFF7B1FFECE7BDE8F081704700BF1E
:10035C001F85EB51CDCCCCCC1C00002038000020EC
:10036C000000002072B6FEE700B595B028220021EF
:10037C000DEB020001F05AFA002305930693079344
:10038C0008930993019302930393049301220A9215
:10039C004FF480330B930E920222119212934FF46E
:1003AC00E01313930AA800F03FFCC8B90F23059380
:1003BC0002210691002307934FF48062089209935F
:1003CC0005A800F063FE68B9022301934FF40043C3
:1003DC00039301A800F010FF30B915B05DF804FBD1
:1003EC00FFF7C0FFFFF7BEFFFFF7BCFF08B500F03B
:1003FC0005F9FFF785FE00F039F8FFF7B5FFFFF7B9
:10040C00DDFE2E20FFF76CFFFBE7000082B00E4BE9
:10041C009A6942F001029A619A6902F00102009213
:10042C00009ADA6942F08052DA61DB6903F080539A
:10043C000193019B054A536823F0E06343F000737A
:10044C00536002B0704700BF001002400000014032
:10045C00FEE7FEE7FEE7FEE7FEE7704770477047F2
:10046C0008B500F0DDF808BD7047000000B58BB092
:10047C000023069307930893099304930593009321
:10048C0001930293039320484FF080420260436033
:10049C0083604FF6FF72C2600361836100F0FAFF64
:1004AC0010BB4FF48053069306A9174801F0E4F8EB
:1004BC00E8B9154801F01AF8E0B900230493059344
:1004CC0004A9114801F058F9B8B90023009301228E
:1004DC00019202930393042269460B4801F05EF8E3
:1004EC0070B90BB05DF804FBFFF73CFFD9E7FFF7E1
:1004FC0039FFDEE7FFF736FFDFE7FFF733FFE4E70F
:10050C00FFF730FFEDE700BF9000002000B587B08B
:10051C00002302930393049305930368B3F1804F74
:10052C0002D007B05DF804FB03F50433DA6942F03E
:10053C000102DA61DA6902F001020092009A9A690A
:10054C0042F004029A619B6903F004030193019B3E
:10055C000223029302A9024800F038FAE1E700BF37
:10056C0000080140FFF780FF0B480C490C4A0023A0
:10057C0002E0D458C4500433C4188C42F9D3094A4D
:10058C00094C002301E013600432A242FBD301F0BA
:10059C0029F9FFF72BFF70470000002060000020B6
:1005AC004419000860000020DC000020FEE7000079
:1005BC0010B504460E4B18784FF47A73B3FBF0F376
:1005CC000C4A1068B0FBF3F000F0ECF968B90F2C92
:1005DC0001D901200AE0002221464FF0FF3000F043
:1005EC00A9F9054B1C60002000E0012010BD00BFE4
:1005FC0058000020540000205C00002008B5074A79
:10060C00136843F010031360032000F081F90F20EE
:10061C00FFF7CEFFFFF7FAFE002008BD00200240D6
:10062C00034A1168034B1B780B441360704700BFDF
:10063C00D800002058000020014B1868704700BFFC
:10064C00D800002038B50446FFF7F6FF0546B4F194
:10065C00FF3F02D0044B1B781C44FFF7EDFF401BFF
:10066C00A042FAD338BD00BF5800002030B482B08D
:10067C000022019290F82420012A00F09180034678
:10068C00012280F824204A68062A2DD80468606B61
:10069C0002EB8202053A4FF01F0C0CFA02FC20EA26
:1006AC000C000D6805FA02F2024362630A68092A1B
:1006BC003AD91C68E06802EB42021E3A4FF0070C74
:1006CC000CFA02FC20EA0C008D6805FA02F20243D7
:1006DC00E2600A68103A012A36D90020002283F819
:1006EC00242002B030BC70470C2A0ED80568286B49
:1006FC0002EB8202233A1F24944020EA04000C6887
:10070C0004FA02F202432A63D0E70568E86A02EBB6
:10071C008202413A1F24944020EA04000C6804FA37
:10072C0002F20243EA62C1E71C68206902EB420252
:10073C004FF0070C0CFA02FC20EA0C008D6805FA4D
:10074C0002F202432261C4E71A681648824205D0BD
:10075C009A6A42F020029A620120BFE7906810F476
:10076C00000F1BD1906840F4000090600A68102ABA
:10077C0001D00020B2E70C4A12680C49A1FB02120E
:10078C00920C02EB82025200019202E0019A013AB1
:10079C000192019A002AF9D100209FE700209DE7E1
:1007AC0002209EE7002401405400002083DE1B43FE
:1007BC0038B503689A6812F0010F01D1002038BDDA
:1007CC0004469A6822F001029A60FFF735FF05464D
:1007DC0023689B6813F0010F13D0FFF72DFF431B09
:1007EC00022BF5D923689B6813F0010FF0D0A36A94
:1007FC0043F01003A362E36A43F00103E3620120B8
:10080C00DDE70020DBE7000000287BD070B5044654
:10081C00836A002B4DD02046FFF7CAFFA36A13F062
:10082C00100369D1002867D1A26A22F4885222F001
:10083C00020242F00202A2626268E1690A43217B71
:10084C0042EA4102A568B5F5807F02D0012D36D071
:10085C001D46267D012E35D02668716821F469412C
:10086C00294371602568AE68274931401143A9605E
:10087C00A168B1F5807F01D0012902D12369013B28
:10088C001B052568E96A21F470010B43EB622368B0
:10089C0099681E4B0B409A4225D0A36A23F0120391
:1008AC0043F01003A362E36A43F00103E362012007
:1008BC0027E0C36280F82430FFF750FCABE74FF41D
:1008CC008075C6E731B9A169013945EA413141F476
:1008DC000065C1E7A16A41F02001A162E16A41F023
:1008EC000101E162B8E70023E362A36A23F003038A
:1008FC0043F00103A36204E0A36A43F01003A36274
:10090C00012070BD01207047FDF7E1FFFE0E1FFFB7
:10091C00074AD36823F4E0631B041B0C000200F4A9
:10092C00E060034343F0BF6343F40033D36070478C
:10093C0000ED00E000B5194BDB68C3F30223C3F1F3
:10094C00070CBCF1040F28BF4FF0040C03F1040E8C
:10095C00BEF1060F18D9033B4FF0FF3E0EFA0CFC0C
:10096C0021EA0C0199400EFA03F322EA030319431E
:10097C0000280BDB0901C9B200F1604000F56140B1
:10098C0080F800135DF804FB0023E5E700F00F008E
:10099C000901C9B2024B1954F4E700BF00ED00E0A5
:1009AC0014ED00E00138B0F1807F0BD24FF0E02362
:1009BC005861054AF02182F8231000209861072223
:1009CC001A6170470120704700ED00E070B582B0ED
:1009DC000024A446A6E0804DAA4210D007D97F4D32
:1009EC00AA420CD005F58035AA4208D013E0A5F533
:1009FC008015AA4203D005F57025AA4207D18A6852
:100A0C00002A58D0012A51D04361082403E0A5F5EF
:100A1C008015AA42F3D0BEF1FF0F4ED80646BEF1A8
:100A2C00FF0F4CD84FEA8C0233680F25954023EA10
:100A3C00050304FA02F2134333604B6813F0805F32
:100A4C006ED0674B9A6942F001029A619B6903F080
:100A5C0001030193019B4FEA9C02951C614B53F8D7
:100A6C0025600CF003039D000F23AB4026EA030620
:100A7C005D4B984229D003F58063984200F08E803C
:100A8C0003F58063984200F08B8003F580639842F5
:100A9C0019D004231AE0CC68BDE7CC680434BAE75B
:100AAC00CC680834B7E7CC680C34B4E7036108248D
:100ABC00B1E70024AFE70424ADE7061DAFE7ACF1C6
:100ACC0008029200B0E7032300E00023AB4033435D
:100ADC000232444D45F822304B6813F4801F61D02C
:100AEC00424A936843EA0E0393604B6813F4001F69
:100AFC005ED03E4AD36843EA0E03D3604B6813F4CE
:100B0C00003F5BD0394A536843EA0E0353604B688D
:100B1C0013F4803F58D0354A136843EA0E03136030
:100B2C000CF1010C0A6832FA0CF353D0012303FACE
:100B3C000CF302EA030E33EA0202F1D14A68122ADC
:100B4C003FF649AF122A3FF666AF01A555F822F0E1
:100B5C000B0A0008A30A0008AD0A0008BF0A000827
:100B6C00230A0008230A0008230A0008230A0008A5
:100B7C00230A0008230A0008230A0008230A000895
:100B8C00230A0008230A0008230A0008230A000885
:100B9C00230A0008A70A0008B30A0008012395E7F6
:100BAC00022393E7114A936823EA0E0393609CE7B0
:100BBC000E4AD36823EA0E03D3609FE70B4A5368AF
:100BCC0023EA0E035360A2E7084A136823EA0E03D4
:100BDC001360A5E702B070BD0000221000003110B8
:100BEC0000100240000001400008014000040140D8
:100BFC000AB10161704709040161704782B0084B6A
:100C0C001B68084AA2FB03235B0A00FB03F3019356
:100C1C0000BF019B5A1E0192002BF9D102B0704704
:100C2C0054000020D34D6210002800F0F18170B503
:100C3C0082B00446036813F0010F2CD0994B5B680B
:100C4C0003F00C03042B1DD0964B5B6803F00C03D4
:100C5C00082B12D06368B3F5803F41D0002B55D1DF
:100C6C0003F1804303F504331A6822F480321A60CE
:100C7C001A6822F480221A6037E08A4B5B6813F4FE
:100C8C00803FE7D0874B1B6813F4003F03D06368A9
:100C9C00002B00F0BF81236813F0020F75D0814B3D
:100CAC005B6813F00C0F5FD07E4B5B6803F00C039A
:100CBC00082B54D02369002B00F08A807A4B012238
:100CCC001A60FFF7B9FC0546764B1B6813F0020F50
:100CDC0075D1FFF7B1FC401B0228F5D903209EE12A
:100CEC00704A136843F480331360636843B3FFF7AF
:100CFC00A3FC05466B4B1B6813F4003FCBD1FFF7ED
:100D0C009BFC401B6428F5D9032088E1B3F5A02F88
:100D1C0009D0644B1A6822F480321A601A6822F4E3
:100D2C0080221A60E1E703F18043A3F53C331A6893
:100D3C0042F480221A601A6842F480321A60D4E7B6
:100D4C00FFF77AFC0546574B1B6813F4003FA2D003
:100D5C00FFF772FC401B6428F5D903205FE1514B6F
:100D6C005B6813F4803FA5D14E4B1B6813F0020F48
:100D7C0003D02369012B40F04F814A4A136823F0BA
:100D8C00F803616943EAC1031360236813F0080F89
:100D9C0033D0A369002B5CD0434B0122C3F88024D1
:100DAC00FFF74AFC05463F4B5B6A13F0020F21D15B
:100DBC00FFF742FC401B0228F5D903202FE1394AEA
:100DCC00136823F0F803616943EAC1031360DCE79D
:100DDC00354B00221A60FFF72FFC0546314B1B6880
:100DEC0013F0020FD1D0FFF727FC401B0228F5D9D6
:100DFC00032014E10120FFF701FF236813F0040F17
:100E0C0000F09680274BDB6913F0805F34D1254BC3
:100E1C00DA6942F08052DA61DB6903F080530193A6
:100E2C00019B0125214B1B6813F4807F26D0E368BE
:100E3C00012B3DD0002B53D103F1804303F5043338
:100E4C001A6A22F001021A621A6A22F004021A6269
:100E5C0033E0154B0022C3F88024FFF7EDFB054669
:100E6C00104B5B6A13F0020FC7D0FFF7E5FB401B7A
:100E7C000228F5D90320D2E00025D3E70B4A1368EA
:100E8C0043F480731360FFF7D7FB0646074B1B68D0
:100E9C0013F4807FCBD1FFF7CFFB801B6428F5D9EF
:100EAC000320BCE0001002400000424200700040F1
:100EBC005F4A136A43F001031362E36833B3FFF72D
:100ECC00BBFB06465A4B1B6A13F0020F2FD1FFF7E0
:100EDC00B3FB801B41F288339842F3D903209EE088
:100EEC00052B09D0524B1A6A22F001021A621A6AB7
:100EFC0022F004021A62E0E74D4B1A6A42F0040237
:100F0C001A621A6A42F001021A62D6E7FFF794FBE2
:100F1C000646474B1B6A13F0020F08D0FFF78CFBF9
:100F2C00801B41F288339842F3D9032077E0E5B96E
:100F3C00E369002B72D03E4A526802F00C02082A78
:100F4C0056D0022B17D03B4B00221A66FFF774FBCE
:100F5C000446374B1B6813F0007F47D0FFF76CFB40
:100F6C00001B0228F5D9032059E0314AD36923F03C
:100F7C008053D361DCE72F4B00221A66FFF75CFB32
:100F8C0005462B4B1B6813F0007F06D0FFF754FB74
:100F9C00401B0228F5D9032041E0236AB3F5803FBA
:100FAC001AD023494B6823F47413226A606A0243F3
:100FBC0013434B601F4B01221A66FFF73DFB04469F
:100FCC001B4B1B6813F0007F0ED1FFF735FB001B8A
:100FDC000228F5D9032022E0154A536823F4003384
:100FEC00A1680B435360DCE7002018E0002016E0FA
:100FFC00012B16D00E4B5B6803F48031226A9142B0
:10100C0011D103F47013626A93420ED1002006E0F2
:10101C0001207047012002E0012000E0002002B016
:10102C0070BD0120FBE70120F9E70120F7E700BFC5
:10103C0000100240000042420F4B5B6803F00C02B0
:10104C00082A01D00D487047C3F383420C49885CD1
:10105C0013F4803F0BD0084B5B68C3F34043094A41
:10106C00D35C064A02FB00F0B0FBF3F07047064B72
:10107C0003FB00F0704700BF0010024000127A0022
:10108C00301900084019000800093D00002800F044
:10109C00A08070B50D460446524B1B6803F0070345
:1010AC008B420BD24F4A136823F007030B43136098
:1010BC00136803F007038B4240F08D80236813F014
:1010CC00020F17D013F0040F04D0474A536843F4AF
:1010DC00E0635360236813F0080F04D0424A53684E
:1010EC0043F460535360404A536823F0F003A16803
:1010FC000B435360236813F0010F31D06368012B4D
:10110C0020D0022B25D0384A126812F0020F64D07E
:10111C0035494A6822F0030213434B60FFF78CFAFF
:10112C000646314B5B6803F00C036268B3EB820F2D
:10113C0016D0FFF781FA801B41F288339842F0D920
:10114C00032045E0284A126812F4003FE0D1012048
:10115C003EE0254A126812F0007FD9D1012037E019
:10116C00204B1B6803F00703AB420AD91D4A1368D6
:10117C0023F007032B431360136803F00703AB4200
:10118C002DD1236813F0040F06D0174A536823F4AB
:10119C00E063E1680B435360236813F0080F07D03A
:1011AC00114A536823F46053216943EAC103536025
:1011BC00FFF742FF0C4B5B68C3F303130B4AD35C82
:1011CC00D8400B4B18600B4B1868FFF7F1F9002057
:1011DC0070BD012070470120FAE70120F8E70120DB
:1011EC00F6E700BF00200240001002402019000862
:1011FC00540000205C00002070B582B004460368E7
:10120C0013F0010F36D03F4BDB6913F0805F49D1EF
:10121C003C4BDA6942F08052DA61DB6903F08053AF
:10122C000193019B0125384B1B6813F4807F3BD045
:10123C00344B1B6A13F4407313D0626802F440728F
:10124C009A420ED02F4A136A23F440702F4901267C
:10125C00C1F840640026C1F84064106213F0010F1D
:10126C0036D1284A136A23F4407361680B43136226
:10127C00002D3ED1236813F0020F06D0214A53688B
:10128C0023F44043A1680B435360236813F0100F01
:10129C0034D01C4A536823F48003E1680B43536039
:1012AC0000202CE00025BEE7174A136843F4807336
:1012BC001360FFF7C1F90646134B1B6813F4807FCC
:1012CC00B6D1FFF7B9F9801B6428F5D9032016E0D5
:1012DC00FFF7B2F906460B4B1B6A13F0020FC0D195
:1012EC00FFF7AAF9801B41F288339842F3D9032007
:1012FC0005E0D36923F08053D361BBE7002002B033
:10130C0070BD00BF0010024000700040000042425F
:10131C0010B4036A046A24F001040462846924F0A2
:10132C00F00C4CEA021223F00A030B4382610362B5
:10133C0010BC704730B4056A046A24F010040462CF
:10134C00846924F4407C4CEA022C2CF4704C1B0372
:10135C009BB243EA0C0325F0A005090101F0A001A2
:10136C0029438361016230BC704710B4036A046A7C
:10137C0024F010040462846924F4704C4CEA0232A8
:10138C0023F0A00343EA01138261036210BC70478F
:10139C0030B4056A046A24F480740462C46924F0CD
:1013AC00030C4CEA020C2CF0F00C1B01DBB243EAF0
:1013BC000C0325F40075090201F400712943C36183
:1013CC00016230BC704730B4056A046A24F480545E
:1013DC000462C46924F4407C4CEA022C2CF4704C5A
:1013EC001B039BB243EA0C0325F40055090301F4DB
:1013FC0000512943C361016230BC7047836823F0FC
:10140C0070030B4343F00703836070477047000081
:10141C0003681F4A90420AD0B0F1804F07D0A2F562
:10142C009432904203D002F58062904203D123F0B3
:10143C0070034A681343164A90420AD0B0F1804FA9
:10144C0007D0A2F59432904203D002F5806290420C
:10145C0003D123F44073CA68134323F080034A6911
:10146C00134303608B68C3620B688362084B98421A
:10147C000AD001234361036913F0010F03D0036900
:10148C0023F00103036170470B690363F1E700BFAD
:10149C00002C014040B310B5044690F83D30F3B138
:1014AC00022384F83D30214651F8040BFFF7B0FFBE
:1014BC00012384F8463084F83E3084F83F3084F8B9
:1014CC00403084F8413084F8423084F8433084F85A
:1014DC00443084F8453084F83D30002010BD80F84D
:1014EC003C30FFF713F8DBE70120704740B310B531
:1014FC00044690F83D30F3B1022384F83D30214688
:10150C0051F8040BFFF784FF012384F8463084F86C
:10151C003E3084F83F3084F8403084F8413084F811
:10152C00423084F8433084F8443084F8453084F8F1
:10153C003D30002010BD80F83C30FFF767FFDBE743
:10154C000120704770B4056A046A24F00104046237
:10155C008469114EB0420DD0B0F1804F0AD0A6F57F
:10156C009436B04206D006F58066B04202D044F004
:10157C00010202E024F00304224322F0F0021B01DA
:10158C00DBB2134325F00A0201F00A011143836117
:10159C00016270BC704700BF002C014038B590F858
:1015AC003C30012B5AD004460D46012380F83C30C8
:1015BC0052B1042A1AD0082A2BD00C2A3BD0012075
:1015CC00002384F83C3038BDCB684A680968006851
:1015DC00FFF7B8FF2268936923F00C03936122682C
:1015EC009369A9680B4393610020E9E7CB684A68CB
:1015FC0009680068FFF79EFE2268936923F4406334
:10160C00936122689369A96843EA012393610020DE
:10161C00D6E7CB684A6809680068FFF7B9FE22680C
:10162C00D36923F00C03D3612268D369A9680B43F7
:10163C00D3610020C4E7CB684A6809680068FFF7EB
:10164C00C2FE2268D36923F44063D3612268D36954
:10165C00A96843EA0123D3610020B1E70220B2E775
:10166C0010B4846824F47F4C42EA03220A4342EA11
:10167C000C02826010BC704790F83C30012B78D083
:10168C0010B50446012380F83C30022380F83D302D
:10169C000268936823F47F4323F0770393600B680D
:1016AC00602B4CD029D8402B54D00CD9502B22D1A4
:1016BC00CA6849680068FFF72BFE50212068FFF7C5
:1016CC009DFE002005E0202B0DD009D9302B0AD02F
:1016DC000120012384F83D30002384F83C3010BDF8
:1016EC000BB1102B05D119462068FFF787FE00209F
:1016FC00EFE70120EDE70120EBE7B3F5805F34D095
:10170C00B3F5005F0CD1CB684A6889680068FFF7B5
:10171C00A7FF2268936843F4804393600020D8E7C6
:10172C00702B24D1CB684A6889680068FFF798FF52
:10173C002268936843F0770393600020C9E7CA6876
:10174C0049680068FFF711FE60212068FFF756FE1C
:10175C000020BEE7CA6849680068FFF7D9FD402140
:10176C002068FFF74BFE0020B3E70020B1E7012013
:10177C00AFE702207047000090F83C30012B2CD0D2
:10178C0010B4012380F83C30022380F83D3003680C
:10179C005A689C6822F0700C0A6842EA0C025A6083
:1017AC0003680F4A93420AD0B3F1804F07D0A2F5D9
:1017BC009432934203D002F58062934204D124F018
:1017CC0080044A6814439C60012380F83D30002358
:1017DC0080F83C30184610BC70470220704700BFA0
:1017EC00002C014070B50D4E0D4D761BB61006D079
:1017FC00002455F8043B01349847A642F9D1094E10
:10180C00094D00F065F8761BB61006D0002455F88B
:10181C00043B01349847A642F9D170BD000000008A
:10182C00000000000000000000000000830730B53D
:10183C0048D0541E002A3FD00346CAB201E0013CF6
:10184C003AD303F8012B9D07F9D1032C2DD9CDB236
:10185C0045EA05250F2C45EA054536D9A4F11002B9
:10186C0022F00F0C03F1200EE6444FEA121C03F198
:10187C00100242E9045542E9025510327245F8D182
:10188C000CF1010214F00C0F03EB021204F00F0C1C
:10189C0013D0ACF1040323F003030433134442F8D4
:1018AC00045B9342FBD10CF003042CB1CAB21C4470
:1018BC0003F8012B9C42FBD130BD64461346002C2F
:1018CC00F4D1F9E703461446BFE71A46A446E0E70D
:1018DC00F8B500BFF8BC08BC9E467047F8B500BF11
:0818EC00F8BC08BC9E467047E1
:1018F40001000200040008001000200040008000E5
:1019040000010002000400080010002000400080D4
:101914007E306D79335B5F707F7B000000000000D8
:10192400000000000102030406070809020304057D
:10193400060708090A0B0C0D0E0F10100102000017
:101944000040020000200200001002000008020013
:101954000004020000020200000102000040040032
:101964000020040000100400000804000004040027
:1019740000020400000104000040010000200100F6
:101984000010010000080100000401000002010031
:101994000001010000127A000100000010000000A4
:040000050800057179
:00000001FF
