:020000040800F2
:1000000000500020A11800088D1700088F17000865
:1000100091170008931700089517000800000000CA
:10002000000000000000000000000000971700081A
:1000300099170008000000009B1700089D17000892
:10004000E9180008E9180008E9180008E91800088C
:10005000E9180008E9180008E9180008E91800087C
:10006000E9180008E9180008E9180008E91800086C
:10007000E9180008E9180008E9180008E91800085C
:10008000E9180008E9180008E9180008E91800084C
:10009000E9180008E9180008E9180008E91800083C
:1000A000E9180008E9180008E9180008E91800082C
:1000B000E9180008E9180008E9180008E91800081C
:1000C000E9180008E9180008E9180008E91800080C
:1000D000E9180008E9180008E9180008E9180008FC
:1000E000E9180008E9180008E918000800000000F5
:1000F0000000000000000000000000000000000000
:0C01000000000000000000005FF808F1A3
:1001100081F0004102E000BF83F0004330B54FEAB8
:1001200041044FEA430594EA050F08BF90EA020F25
:100130001FBF54EA000C55EA020C7FEA645C7FEAB8
:10014000655C00F0E2804FEA5454D4EB5555B8BFDB
:100150006D420CDD2C4480EA020281EA030382EA4C
:10016000000083EA010180EA020281EA0303362DDE
:1001700088BF30BD11F0004F4FEA01314FF4801CB1
:100180004CEA113102D0404261EB410113F0004FC3
:100190004FEA03334CEA133302D0524263EB43037A
:1001A00094EA050F00F0A780A4F10104D5F1200E18
:1001B0000DDB02FA0EFC22FA05F2801841F1000173
:1001C00003FA0EF2801843FA05F359410EE0A5F147
:1001D00020050EF1200E012A03FA0EFC28BF4CF078
:1001E000020C43FA05F3C01851EBE37101F000452E
:1001F00007D54FF0000EDCF1000C7EEB00006EEB3B
:100200000101B1F5801F1BD3B1F5001F0CD34908C4
:100210005FEA30004FEA3C0C04F101044FEA44521B
:1002200012F5800F80F09A80BCF1004F08BF5FEAA2
:10023000500C50F1000041EB045141EA050130BD82
:100240005FEA4C0C404141EB0101013C28BFB1F594
:10025000801FE9D291F0000F04BF01460020B1FADF
:1002600081F308BF2033A3F10B03B3F120020CDAB2
:100270000C3208DD02F1140CC2F10C0201FA0CF090
:1002800021FA02F10CE002F11402D8BFC2F1200CF5
:1002900001FA02F120FA0CFCDCBF41EA0C019040AB
:1002A000E41AA2BF01EB0451294330BD6FEA0404F4
:1002B0001F3C1CDA0C340EDC04F11404C4F12002DF
:1002C00020FA04F001FA02F340EA030021FA04F3F1
:1002D00045EA030130BDC4F10C04C4F1200220FA48
:1002E00002F001FA04F340EA0300294630BD21FA86
:1002F00004F0294630BD94F0000F83F4801306BF4C
:1003000081F480110134013D4EE77FEA645C18BF3F
:100310007FEA655C29D094EA050F08BF90EA020FD6
:1003200005D054EA000C04BF1946104630BD91EACE
:10033000030F1EBF0021002030BD5FEA545C05D1D1
:100340004000494128BF41F0004130BD14F5800410
:100350003CBF01F5801130BD01F0004545F0FE4184
:1003600041F470014FF0000030BD7FEA645C1ABFB9
:10037000194610467FEA655C1CBF0B46024650EAF0
:10038000013406BF52EA033591EA030F41F400211C
:1003900030BD00BF90F0000F04BF0021704730B5A2
:1003A0004FF4806404F132044FF000054FF0000177
:1003B00050E700BF90F0000F04BF0021704730B538
:1003C0004FF4806404F1320410F0004548BF40420D
:1003D0004FF000013EE700BF42004FEAE2014FEA62
:1003E00031014FEA02701FBF12F07F4393F07F4F3D
:1003F00081F06051704732F07F4208BF704793F040
:100400007F4F04BF41F40021704730B54FF4607452
:1004100001F0004521F000411CE700BF50EA010255
:1004200008BF704730B54FF000050AE050EA0102FE
:1004300008BF704730B511F0004502D5404261EB6E
:1004400041014FF4806404F132045FEA915C3FF4AF
:10045000D8AE4FF003025FEADC0C18BF03325FEA4C
:10046000DC0C18BF033202EBDC02C2F1200300FAFD
:1004700003FC20FA02F001FA03FE40EA0E0021FA22
:1004800002F11444BDE600BF70B54FF0FF0C4CF410
:10049000E06C1CEA11541DBF1CEA135594EA0C0FC2
:1004A00095EA0C0F00F0DEF82C4481EA030621EAFD
:1004B0004C5123EA4C5350EA013518BF52EA033538
:1004C00041F4801143F4801338D0A0FB02CE4FF0EA
:1004D0000005E1FB02E506F00042E0FB03E54FF01A
:1004E0000006E1FB03569CF0000F18BF4EF0010E12
:1004F000A4F1FF04B6F5007F64F5407404D25FEA0E
:100500004E0E6D4146EB060642EAC62141EA5551C0
:100510004FEAC52040EA5E504FEACE2EB4F1FD0C02
:1005200088BFBCF5E06F1ED8BEF1004F08BF5FEA80
:10053000500E50F1000041EB045170BD06F0004632
:1005400046EA010140EA020081EA0301B4EB5C04DF
:10055000C2BFD4EB0C0541EA045170BD41F48011D7
:100560004FF0000E013C00F3AB8014F1360FDEBFFC
:10057000002001F0004170BDC4F10004203C35DAD8
:100580000C341BDC04F11404C4F1200500FA05F35B
:1005900020FA04F001FA05F240EA020001F00042FC
:1005A00021F0004110EBD37021FA04F642EB060172
:1005B0005EEA430E08BF20EAD37070BDC4F10C049C
:1005C000C4F1200500FA04F320FA05F001FA04F260
:1005D00040EA020001F0004110EBD37041F100014C
:1005E0005EEA430E08BF20EAD37070BDC4F1200557
:1005F00000FA05F24EEA020E20FA04F301FA05F2BF
:1006000043EA020321FA04F001F0004121FA04F266
:1006100020EA020000EBD3705EEA430E08BF20EA36
:10062000D37070BD94F0000F0FD101F00046400070
:1006300041EB010111F4801F08BF013CF7D041EAF2
:10064000060195F0000F18BF704703F000465200F6
:1006500043EB030313F4801F08BF013DF7D043EAC7
:100660000603704794EA0C0F0CEA135518BF95EA7D
:100670000C0F0CD050EA410618BF52EA4306D1D104
:1006800081EA030101F000414FF0000070BD50EA23
:10069000410606BF1046194652EA430619D094EAAD
:1006A0000C0F02D150EA013613D195EA0C0F05D197
:1006B00052EA03361CBF104619460AD181EA0301EB
:1006C00001F0004141F0FE4141F470014FF00000A3
:1006D00070BD41F0FE4141F4780170BD70B54FF03E
:1006E000FF0C4CF4E06C1CEA11541DBF1CEA1355BE
:1006F00094EA0C0F95EA0C0F00F0A7F8A4EB0504A0
:1007000081EA030E52EA03354FEA013100F0888096
:100710004FEA03334FF0805545EA131343EA12635F
:100720004FEA022245EA111545EA10654FEA002614
:100730000EF000419D4208BF964244F1FD0404F5CD
:10074000407402D25B084FEA3202B61A65EB030529
:100750005B084FEA32024FF480104FF4002CB6EBE6
:10076000020E75EB030E22BFB61A754640EA0C0066
:100770005B084FEA3202B6EB020E75EB030E22BFA6
:10078000B61A754640EA5C005B084FEA3202B6EBE7
:10079000020E75EB030E22BFB61A754640EA9C00A6
:1007A0005B084FEA3202B6EB020E75EB030E22BF76
:1007B000B61A754640EADC0055EA060E18D04FEA34
:1007C000051545EA16754FEA06164FEAC30343EAD4
:1007D00052734FEAC2025FEA1C1CC0D111F4801FA1
:1007E0000BD141EA00014FF000004FF0004CB6E79A
:1007F00011F4801F04BF01430020B4F1FD0C88BF39
:10080000BCF5E06F3FF6AFAEB5EB030C04BFB6EB43
:10081000020C5FEA500C50F1000041EB045170BD36
:100820000EF0004E4EEA113114EB5C04C2BFD4EB63
:100830000C0541EA045170BD41F480114FF0000EE7
:10084000013C90E645EA060E8DE60CEA135594EA63
:100850000C0F08BF95EA0C0F3FF43BAF94EA0C0F66
:100860000AD150EA01347FF434AF95EA0C0F7FF4DB
:1008700025AF104619462CE795EA0C0F06D152EA2F
:1008800003353FF4FDAE1046194622E750EA410613
:1008900018BF52EA43067FF4C5AE50EA41047FF424
:1008A0000DAF52EA43057FF4EBAE12E74FEA410287
:1008B000B2F1E04324BFB3F5001CDCF1FE5C0DD9BE
:1008C00001F0004C4FEAC0024CEA5070B2F1004F08
:1008D00040EB830008BF20F00100704711F0804F0B
:1008E00021D113F13872BCBF01F00040704741F4D0
:1008F00080114FEA5252C2F11802C2F1200C10FAD4
:100900000CF320FA02F018BF40F001004FEAC123B7
:100910004FEAD32303FA0CFC40EA0C0023FA02F35B
:100920004FEA4303CCE77FEA625307D150EA013331
:100930001EBF4FF0FE4040F44000704701F0004001
:1009400040F0FE4040F40000704700BF80F00040DF
:1009500002E000BF81F0004142001FBF5FEA410397
:1009600092EA030F7FEA226C7FEA236C6AD04FEA97
:100970001262D2EB1363C1BFD218414048404140DC
:10098000B8BF5B42192B88BF704710F0004F40F48E
:10099000000020F07F4018BF404211F0004F41F4AA
:1009A000000121F07F4118BF494292EA030F3FD076
:1009B000A2F1010241FA03FC10EB0C00C3F1200389
:1009C00001FA03F100F0004302D5494260EB400018
:1009D000B0F5000F13D3B0F1807F06D340084FEA83
:1009E000310102F10102FE2A51D2B1F1004F40EB78
:1009F000C25008BF20F0010040EA030070474900E0
:100A000040EB0000013A28BFB0F5000FEDD2B0FA7C
:100A100080FCACF1080CB2EB0C0200FA0CF0AABF9F
:100A200000EBC25052421843BCBFD040184370473D
:100A300092F0000F81F4000106BF80F40000013243
:100A4000013BB5E74FEA41037FEA226C18BF7FEA1A
:100A5000236C21D092EA030F04D092F0000F08BF5C
:100A60000846704790EA010F1CBF0020704712F043
:100A70007F4F04D1400028BF40F00040704712F182
:100A800000723CBF00F50000704700F0004343F0E7
:100A9000FE4040F4000070477FEA226216BF08461D
:100AA0007FEA23630146420206BF5FEA412390EAE0
:100AB000010F40F4800070474FF0000304E000BFD6
:100AC00010F0004348BF40425FEA000C08BF704787
:100AD00043F0964301464FF000001CE050EA01024B
:100AE00008BF70474FF000030AE000BF50EA010260
:100AF00008BF704711F0004302D5404261EB41014D
:100B00005FEA010C02BF84460146002043F0B64371
:100B100008BFA3F18053A3F50003BCFA8CF2083A96
:100B2000A3EBC25310DB01FA02FC634400FA02FC9F
:100B3000C2F12002BCF1004F20FA02F243EB0200A6
:100B400008BF20F00100704702F1200201FA02FC08
:100B5000C2F1200250EA4C0021FA02F243EB0200FB
:100B600008BF20EADC7070474FF0FF0C1CEAD0523F
:100B70001EBF1CEAD15392EA0C0F93EA0C0F6FD000
:100B80001A4480EA010C400218BF5FEA41211ED0DE
:100B90004FF0006343EA501043EA5111A0FB0131CA
:100BA0000CF00040B1F5000F3EBF490041EAD3719F
:100BB0005B0040EA010062F17F02FD2A1DD8B3F11B
:100BC000004F40EBC25008BF20F00100704790F08A
:100BD000000F0CF0004C08BF49024CEA502040EADC
:100BE00051207F3AC2BFD2F1FF0340EAC2507047A2
:100BF00040F400004FF00003013A5DDC12F1190FE0
:100C0000DCBF00F000407047C2F10002410021FA51
:100C100002F1C2F1200200FA02FC5FEA310040F169
:100C2000000053EA4C0308BF20EADC70704792F0E2
:100C3000000F00F0004C02BF400010F4000F013A1A
:100C4000F9D040EA0C0093F0000F01F0004C02BF15
:100C5000490011F4000F013BF9D041EA0C018FE784
:100C60000CEAD15392EA0C0F18BF93EA0C0F0AD08A
:100C700030F0004C18BF31F0004CD8D180EA0100B0
:100C800000F00040704790F0000F17BF90F0004F49
:100C9000084691F0000F91F0004F14D092EA0C0F2B
:100CA00001D142020FD193EA0C0F03D14B0218BFBE
:100CB000084608D180EA010000F0004040F0FE4004
:100CC00040F40000704740F0FE4040F440007047A0
:100CD0004FF0FF0C1CEAD0521EBF1CEAD15392EA1F
:100CE0000C0F93EA0C0F69D0A2EB030280EA010C0F
:100CF00049024FEA402037D04FF0805343EA1111A8
:100D000043EA10130CF000408B4238BF5B0042F105
:100D10007D024FF4000C8B4224BF5B1A40EA0C00AA
:100D2000B3EB510F24BFA3EB510340EA5C00B3EBDC
:100D3000910F24BFA3EB910340EA9C00B3EBD10FCA
:100D400024BFA3EBD10340EADC001B0118BF5FEA1C
:100D50001C1CE0D1FD2A3FF650AF8B4240EBC25045
:100D600008BF20F0010070470CF0004C4CEA502006
:100D70007F32C2BFD2F1FF0340EAC250704740F455
:100D800000004FF00003013A37E792F0000F00F047
:100D9000004C02BF400010F4000F013AF9D040EAC5
:100DA0000C0093F0000F01F0004C02BF490011F459
:100DB000000F013BF9D041EA0C0195E70CEAD15351
:100DC00092EA0C0F08D142027FF47DAF93EA0C0F38
:100DD0007FF470AF084676E793EA0C0F04D14B021C
:100DE0003FF44CAF08466EE730F0004C18BF31F0CE
:100DF000004CCAD130F000427FF45CAF31F00043C8
:100E00007FF43CAF5FE700BF4FF0FF3C06E000BF60
:100E10004FF0010C02E000BF4FF0010C4DF804CD83
:100E20004FEA40024FEA41037FEA226C18BF7FEA93
:100E3000236C11D001B052EA530C18BF90EA010F95
:100E400058BFB2EB030088BFC81738BF6FEAE17024
:100E500018BF40F0010070477FEA226C02D15FEAC0
:100E6000402C05D17FEA236CE4D15FEA412CE1D02C
:100E70005DF8040B704700BF844608466146FFE7F3
:100E80000FB5FFF7C9FF002848BF10F1000F0FBDD5
:100E90004DF808EDFFF7F4FF0CBF012000205DF8CE
:100EA00008FB00BF4DF808EDFFF7EAFF34BF012053
:100EB00000205DF808FB00BF4DF808EDFFF7E0FFEC
:100EC00094BF012000205DF808FB00BF4DF808ED3D
:100ED000FFF7D2FF94BF012000205DF808FB00BFA0
:100EE0004DF808EDFFF7C8FF34BF012000205DF882
:100EF00008FB00BF42000ED2B2F1FE4F0BD34FF001
:100F00009E03B3EB126209D44FEA002343F000437F
:100F100023FA02F070474FF00000704712F1610FA2
:100F200001D1420202D14FF0FF3070474FF0000074
:100F3000704700BF4FF0FF3C06E000BF4FF0010CD0
:100F400002E000BF4FF0010C4DF804CD4FEA410C18
:100F50007FEA6C5C4FEA430C18BF7FEA6C5C1BD0E5
:100F600001B050EA410C0CBF52EA430C91EA030F66
:100F700002BF90EA020F0020704710F1000F91EAC3
:100F8000030F58BF994208BF90422CBFD8176FEA91
:100F9000E37040F0010070474FEA410C7FEA6C5C5F
:100FA00002D150EA013C07D14FEA430C7FEA6C5C66
:100FB000D6D152EA033CD3D05DF8040B704700BF92
:100FC0008446104662468C461946634600E000BFE0
:100FD00001B5FFF7B7FF002848BF10F1000F01BDB2
:100FE0004DF808EDFFF7F4FF0CBF012000205DF87D
:100FF00008FB00BF4DF808EDFFF7EAFF34BF012002
:1010000000205DF808FB00BF4DF808EDFFF7E0FF9A
:1010100094BF012000205DF808FB00BF4DF808EDEB
:10102000FFF7CEFF94BF012000205DF808FB00BF52
:101030004DF808EDFFF7C4FF34BF012000205DF834
:1010400008FB00BF4FEA410C7FEA6C5C02D150EA1A
:10105000013C0AD14FEA430C7FEA6C5C02D152EAB0
:10106000033C02D14FF0000070474FF00100704781
:1010700000B585B000230193029303931148124AEF
:10108000026083600122027303754FF46021C16125
:101090004360026100F0D4FE68B904230193012388
:1010A00002930023039301A9064800F043FD28B9E9
:1010B00005B05DF804FB00F091FAEEE700F08EFA5F
:1010C000F6E700BFB00400200028014000B587B05B
:1010D000002302930393049305930268114B9A42F1
:1010E00002D007B05DF804FB03F568439A6942F447
:1010F00080629A619A6902F480620092009A9A6909
:1011000042F004029A619B6903F004030193019B7E
:10111000102302930323039302A9034800F072FFF4
:10112000DFE700BF002801400008014010B5074C70
:10113000204600F0E5FD6421204600F035FC08B1B2
:10114000002010BD204600F0F1FCFAE7B0040020BA
:1011500030B589B000240494059406940794264B76
:101160009A6942F010029A619A6902F010020092A4
:10117000009A9A6942F020029A619A6902F020026C
:101180000192019A9A6942F004029A619A6902F006
:1011900004020292029A9A6942F008029A619B69DB
:1011A00003F008030393039B144D22464FF6FF718F
:1011B000284601F040F84FF4005304930594069438
:1011C00004A90F4800F01EFF4FF6FF73049301239C
:1011D000059306940223079304A9284600F012FF02
:1011E0004FF480730493074B0593069404A90648B3
:1011F00000F008FF09B030BD00100240000C0140B3
:1012000000100140000011100008014000EBC00078
:10121000024BA3FB0030800820307047CDCCCCCCF3
:1012200010B5002407E001220A4B33F814100A48D5
:1012300001F001F80134052CF5DD002407E000225F
:10124000064B33F81410044800F0F5FF0134092C64
:10125000F5DD10BDB4340008000C0140D4340008A2
:1012600010B582B00190074C0022BDF80610204650
:1012700000F0E1FF0122BDF80410204600F0DBFF82
:1012800002B010BD000C0140092815D870B50E46FB
:101290000A4B1D5C002400E00134062C0BDCC4F179
:1012A000060345FA03F313F0010FF5D056F82400B6
:1012B000FFF7D6FFF0E770BD704700BFE8340008C5
:1012C00009280BD838B50D46002404E055F8240051
:1012D000FFF7C6FF0134012CF8DD38BD7047000070
:1012E000094B1B78062B00D8704710B504460068E0
:1012F000FFF7B6FF6068FFF7B3FFA068FFF7B0FF26
:10130000E068FFF7ADFF10BDF504002010B50446FE
:101310000068FFF7A5FF6068FFF7A2FFA068FFF76E
:101320009FFF10BD08B54068FFF79AFF08BD08B5DC
:101330000068FFF795FF08BD014B1880704700BF9C
:10134000E204002009280CD9A0F10A030748A0FBF9
:101350000323C3F3C7030133DBB2092B02D90923EB
:1013600000E00023024A1370704700BFCDCCCCCC04
:10137000F504002010B5FFF753FF414B1C8841488E
:10138000A0FB043C4FEA5C12CCF3471C642000FB3A
:10139000124292B23C4BA3FB0212C2F3C702A3FB60
:1013A0000413DB0803EB83035900611AC8B2374BFF
:1013B0001B78062B16D8DFE803F0040B12224B4FE4
:1013C0005B00632C0ED932496046FFF779FF09E0D4
:1013D000092C07D92F491046FFF756FF02E02E4986
:1013E000FFF752FF29490A7801322C4B83FB020395
:1013F00013449B10C3EBC303D31A0B7010BD002220
:101400000121274800F017FF0124052C08DC0122E8
:10141000244B33F81410224800F00DFF0134F4E798
:10142000002407E00022204B33F814101C4800F081
:1014300002FF0134082CD5DC1C4B1B78A342F1DDE4
:101440000122194B33F81410154800F0F4FEF0E7B0
:101450001748FFF745FFC5E7164B1B78012B03D054
:101460001548FFF764FFBDE71348FFF75BFFB9E7D7
:10147000124B1B78012BB5D11148FFF747FFB1E79D
:10148000E20400201F85EB51CDCCCCCCE004002041
:1014900008000020100000202C0000209324499216
:1014A000000C0140B4340008C0340008F5040020EA
:1014B00048000020F404002000000020F604002072
:1014C0005C00002010B54FF40051134800F0ACFE52
:1014D0000446124B1B78012B04D0104B1C70FFF7F5
:1014E00049FF10BD0028F8D1C82000F049FA4FF498
:1014F0000051094800F098FE0028EED1084A137800
:10150000B3FA83F35B091370064A1378B3FA83F3D3
:101510005B091370E1E700BF001001405800002094
:10152000E4040020F40400202DE9F041FFF7FEFD63
:1015300000F0A6F8FFF7DEFC0546FFF767FE07465A
:1015400000F018FA04461F4B1E68861BB6F57A7F1A
:101550001BD91D4B1868281AFFF7AEFA8046304693
:10156000FFF7AAFA01464046FFF7B2FB1749FFF71B
:10157000FBFA4FF08141FFF7B3FCD8B1144B0022C6
:101580001A70114B1D600F4B1C60FFF79BFF114B36
:101590001B68E31AB3F5FA7F0AD90E4B1C600E4B99
:1015A0001B785BB1A8B2FFF7C7FE2846FFF7CAFE5B
:1015B000BDE8F081064B01221A70E2E7B8B2FFF7EE
:1015C000BBFEF2E7EC040020E804002000007A44AF
:1015D000F6040020F0040020E404002072B6FEE7C8
:1015E00000B595B0282200210DEB020001F0CAFCE5
:1015F000002305930693079308930993019302939D
:101600000393049301220A924FF480330B930E92BA
:101610000222119212934FF4E01313930AA800F0E0
:1016200027FEC8B90F2305930221069100230793D3
:101630004FF480620892099305A801F04BF868B94D
:10164000022301934FF40043039301A801F00EF924
:1016500030B915B05DF804FBFFF7C0FFFFF7BEFF20
:10166000FFF7BCFF08B500F067F9FFF7B9FFFFF718
:101670006FFDFFF7FDFC00F097F8FFF755FFFCE763
:10168000421E40F6FD739A4201D92548704770B555
:10169000FFF712FA2349FFF71BFB234B1C68214677
:1016A000FFF762FA01462046FFF712FB4FF07E512A
:1016B000FFF750F91D4B1968FFF756FA06461C4B09
:1016C00019684FF07E50FFF703FBFEF785FE0446D6
:1016D0000D46184B19683046FFF7FAFAFEF77CFE04
:1016E00001F0A2FC02460B4620462946FEF7CCFE3E
:1016F00009A3D3E90023FEF711FD02460B460020A3
:101700000D49FEF7EBFFFFF7D1F80C49FFF722F97F
:1017100070BD00BFAFF30080000000E0E1796B3FD7
:1017200000007AC400F07F457400002070000020A3
:10173000680000206C0000200000F03F33938843D5
:1017400000B583B00F4B9A6942F001029A619A6921
:1017500002F001020092009ADA6942F08052DA61E6
:10176000DB6903F080530193019B052000F0ECFB43
:10177000054A536823F0E06343F00073536003B0FD
:101780005DF804FB0010024000000140FEE7FEE7A8
:10179000FEE7FEE7FEE770477047704708B500F0C8
:1017A000DDF808BD7047000000B58BB0002306933C
:1017B000079308930993049305930093019302936D
:1017C000039320484FF080420260436083604FF6ED
:1017D000FF72C2600361836101F002FA10BB4FF433
:1017E0008053069306A9174801F0ECFAE8B91548AA
:1017F00001F022FAE0B900230493059304A91148EB
:1018000001F060FBB8B9002300930122019202931A
:101810000393042269460B4801F066FA70B90BB0D5
:101820005DF804FBFFF7DAFED9E7FFF7D7FEDEE746
:10183000FFF7D4FEDFE7FFF7D1FEE4E7FFF7CEFEC8
:10184000EDE700BFF804002000B587B00023029345
:101850000393049305930368B3F1804F02D007B05C
:101860005DF804FB03F50433DA6942F00102DA6142
:10187000DA6902F001020092009A9A6942F00402C9
:101880009A619B6903F004030193019B0223029375
:1018900002A9024800F0B6FBE1E700BF00080140E2
:1018A000FFF780FF0B480C490C4A002302E0D45894
:1018B000C4500433C4188C42F9D3094A094C00239C
:1018C00001E013600432A242FBD301F037FBFFF7C3
:1018D000C9FE704700000020B00400203835000821
:1018E000B004002044050020FEE7000010B50446C7
:1018F0000E4B18784FF47A73B3FBF0F30C4A106870
:10190000B0FBF3F000F06AFB68B90F2C01D901209D
:101910000AE0002221464FF0FF3000F027FB054B84
:101920001C60002000E0012010BD00BF7C000020F2
:10193000780000208000002008B5074A136843F0B3
:1019400010031360032000F0FFFA0020FFF7CEFF22
:10195000FFF7F6FE002008BD00200240034A116890
:10196000034B1B780B441360704700BF40050020F9
:101970007C000020014B1868704700BF4005002024
:1019800038B50446FFF7F6FF0546B4F1FF3F02D035
:10199000044B1B781C44FFF7EDFF401BA042FAD319
:1019A00038BD00BF7C000020F0B583B005460C4672
:1019B00000230193FFF7DEFF2B689A6812F4807F03
:1019C00023D107465A6812F4807F03D1DB6A13F4EF
:1019D000700F29D0504B1E68022000F0D3FFB6FBD9
:1019E000F0F62B6819694D4A114236D1D96802F1D7
:1019F0005C42114231D11969494A114240D1DA6839
:101A0000484B1A423ED0292041E0AB6A43F0200304
:101A1000AB62002385F82430012003B0F0BD2B68B1
:101A20001B6813F0020F0FD02B681B6813F0020F16
:101A30004FD1B4F1FF3FF7D0002CF0D0FFF79AFF61
:101A4000C31BA342F0D9EAE7AB6A43F00403AB62DD
:101A5000002385F824300320DFE71969304A11425A
:101A600004D1D96802F16E4211420DD019692E4A93
:101A70000A405AB9DA682C4B13405BB1FC2006E0EF
:101A8000292004E0142002E0542000E0FC2000FBA8
:101A900006F607E05420FAE7019BB34210D3019BFE
:101AA00001330193019BB34213D2B4F1FF3FF6D04F
:101AB000002CF1D0FFF75EFFC01BA042EFD9EBE78F
:101AC000AB6A43F00403AB62002385F824300320A3
:101AD000A3E72B686FF012021A60AB6A43F400733D
:101AE000AB622B689B6803F46023B3F5602F01D0D1
:101AF000002092E7287B60B9AB6A23F48073AB6265
:101B0000AB6A13F4805F88D1AB6A43F00103AB6228
:101B100083E7002081E700BF780000202449922459
:101B20009224491292244900499224000368D86CF7
:101B30007047000030B482B00022019290F8242057
:101B4000012A00F091800346012280F824204A688F
:101B5000062A2DD80468606B02EB8202053A4FF02A
:101B60001F0C0CFA02FC20EA0C000D6805FA02F2C8
:101B7000024362630A68092A3AD91C68E06802EBEA
:101B800042021E3A4FF0070C0CFA02FC20EA0C004D
:101B90008D6805FA02F20243E2600A68103A012AEF
:101BA00036D90020002283F8242002B030BC7047D0
:101BB0000C2A0ED80568286B02EB8202233A1F24F8
:101BC000944020EA04000C6804FA02F202432A63FB
:101BD000D0E70568E86A02EB8202413A1F2494408C
:101BE00020EA04000C6804FA02F20243EA62C1E748
:101BF0001C68206902EB42024FF0070C0CFA02FC51
:101C000020EA0C008D6805FA02F202432261C4E763
:101C10001A681648824205D09A6A42F020029A62F7
:101C20000120BFE7906810F4000F1BD1906840F4CA
:101C3000000090600A68102A01D00020B2E70C4A28
:101C400012680C49A1FB0212920C02EB82025200B4
:101C5000019202E0019A013A0192019A002AF9D117
:101C600000209FE700209DE702209EE7002401401E
:101C70007800002083DE1B4330B583B0002301933E
:101C800003689A6812F0010F33D104469A6842F053
:101C900001029A60184B1B68184AA2FB03239B0C95
:101CA000019302E0019B013B0193019B002BF9D1C1
:101CB000FFF760FE054623689B6813F0010F16D1FD
:101CC000FFF758FE431B022BF5D923689B6813F0DE
:101CD000010FF0D1A36A43F01003A362E36A43F05B
:101CE0000103E362002384F82430012002E0002095
:101CF00000E0002003B030BD7800002083DE1B43ED
:101D000090F82430012B68D010B50446012380F8E8
:101D10002430FFF7B1FF00285BD1A36A23F440739E
:101D200023F0010343F48073A36223682C4A934297
:101D300027D0A26A22F48012A2625A6812F4806F3D
:101D400005D0A26A22F4405242F48052A262A26AF2
:101D500012F4805F2BD0E26A22F00602E2620022D7
:101D600084F824206FF002021A6023689A6802F453
:101D70006022B2F5602F1DD09A6842F480129A60FA
:101D80002AE0A2F58062526812F4702FD1D0A26AC4
:101D900042F48012A262134A526812F4806FD6D0C5
:101DA000A26A22F4405242F48052A262CFE700229B
:101DB000E262D4E70A4A934204D09A6842F4A0024D
:101DC0009A6009E0A2F58062526812F4702FD3D1B4
:101DD000F3E7002384F8243010BD0220704700BFD1
:101DE000002801400024014038B503689A6812F0C9
:101DF000010F01D1002038BD04469A6822F001028B
:101E00009A60FFF7B7FD054623689B6813F0010F42
:101E100013D0FFF7AFFD431B022BF5D923689B6856
:101E200013F0010FF0D0A36A43F01003A362E36A3A
:101E300043F00103E3620120DDE70020DBE700005F
:101E400000287BD070B50446836A002B4DD0204615
:101E5000FFF7CAFFA36A13F0100369D1002867D106
:101E6000A26A22F4885222F0020242F00202A26226
:101E70006268E1690A43217B42EA4102A568B5F53F
:101E8000807F02D0012D36D01D46267D012E35D013
:101E90002668716821F46941294371602568AE683C
:101EA000274931401143A960A168B1F5807F01D075
:101EB000012902D12369013B1B052568E96A21F448
:101EC00070010B43EB62236899681E4B0B409A42EA
:101ED00025D0A36A23F0120343F01003A362E36A40
:101EE00043F00103E362012027E0C36280F824305D
:101EF000FFF7ECF8ABE74FF48075C6E731B9A1699D
:101F0000013945EA413141F40065C1E7A16A41F078
:101F10002001A162E16A41F00101E162B8E700231A
:101F2000E362A36A23F0030343F00103A36204E026
:101F3000A36A43F01003A362012070BD0120704723
:101F4000FDF7E1FFFE0E1FFF074AD36823F4E063AD
:101F50001B041B0C000200F4E060034343F0BF636A
:101F600043F40033D360704700ED00E000B5194B37
:101F7000DB68C3F30223C3F1070CBCF1040F28BFD5
:101F80004FF0040C03F1040EBEF1060F18D9033B09
:101F90004FF0FF3E0EFA0CFC21EA0C0199400EFABC
:101FA00003F322EA0303194300280BDB0901C9B23A
:101FB00000F1604000F5614080F800135DF804FB1B
:101FC0000023E5E700F00F000901C9B2024B1954E4
:101FD000F4E700BF00ED00E014ED00E00138B0F1DF
:101FE000807F0BD24FF0E0235861054AF02182F840
:101FF00023100020986107221A6170470120704762
:1020000000ED00E070B582B00024A446A6E0804D4B
:10201000AA4210D007D97F4DAA420CD005F58035D1
:10202000AA4208D013E0A5F58015AA4203D005F511
:102030007025AA4207D18A68002A58D0012A51D0B7
:102040004361082403E0A5F58015AA42F3D0BEF150
:10205000FF0F4ED80646BEF1FF0F4CD84FEA8C0258
:1020600033680F25954023EA050304FA02F213436F
:1020700033604B6813F0805F6ED0674B9A6942F013
:1020800001029A619B6903F001030193019B4FEAEE
:102090009C02951C614B53F825600CF003039D00D6
:1020A0000F23AB4026EA03065D4B984229D003F587
:1020B0008063984200F08E8003F58063984200F0C0
:1020C0008B8003F58063984219D004231AE0CC6812
:1020D000BDE7CC680434BAE7CC680834B7E7CC680D
:1020E0000C34B4E703610824B1E70024AFE704240B
:1020F000ADE7061DAFE7ACF108029200B0E703239D
:1021000000E00023AB4033430232444D45F8223017
:102110004B6813F4801F61D0424A936843EA0E0370
:1021200093604B6813F4001F5ED03E4AD36843EAC5
:102130000E03D3604B6813F4003F5BD0394A5368F9
:1021400043EA0E0353604B6813F4803F58D0354A7E
:10215000136843EA0E0313600CF1010C0A6832FAAB
:102160000CF353D0012303FA0CF302EA030E33EA13
:102170000202F1D14A68122A3FF649AF122A3FF60D
:1021800066AF01A555F822F037200008CF200008DF
:10219000D9200008EB2000084F2000084F2000083D
:1021A0004F2000084F2000084F2000084F20000853
:1021B0004F2000084F2000084F2000084F20000843
:1021C0004F2000084F2000084F200008D3200008AF
:1021D000DF200008012395E7022393E7114A936863
:1021E00023EA0E0393609CE70E4AD36823EA0E03AA
:1021F000D3609FE70B4A536823EA0E035360A2E7BC
:10220000084A136823EA0E031360A5E702B070BD05
:1022100000002210000031100010024000000140B8
:1022200000080140000401408368194201D00120E8
:102230007047002070470AB10161704709040161CD
:102240007047000082B0084B1B68084AA2FB0323BA
:102250005B0A00FB03F3019300BF019B5A1E01922E
:10226000002BF9D102B0704778000020D34D6210E6
:10227000002800F0F18170B582B00446036813F0C5
:10228000010F2CD0994B5B6803F00C03042B1DD07D
:10229000964B5B6803F00C03082B12D06368B3F510
:1022A000803F41D0002B55D103F1804303F5043327
:1022B0001A6822F480321A601A6822F480221A60A6
:1022C00037E08A4B5B6813F4803FE7D0874B1B688D
:1022D00013F4003F03D06368002B00F0BF81236834
:1022E00013F0020F75D0814B5B6813F00C0F5FD0B9
:1022F0007E4B5B6803F00C03082B54D02369002B42
:1023000000F08A807A4B01221A60FFF733FB054602
:10231000764B1B6813F0020F75D1FFF72BFB401BA8
:102320000228F5D903209EE1704A136843F48033F4
:102330001360636843B3FFF71DFB05466B4B1B68D7
:1023400013F4003FCBD1FFF715FB401B6428F5D9F0
:10235000032088E1B3F5A02F09D0644B1A6822F45A
:1023600080321A601A6822F480221A60E1E703F1D1
:102370008043A3F53C331A6842F480221A601A683D
:1023800042F480321A60D4E7FFF7F4FA0546574B5F
:102390001B6813F4003FA2D0FFF7ECFA401B64283F
:1023A000F5D903205FE1514B5B6813F4803FA5D161
:1023B0004E4B1B6813F0020F03D02369012B40F032
:1023C0004F814A4A136823F0F803616943EAC10365
:1023D0001360236813F0080F33D0A369002B5CD07F
:1023E000434B0122C3F88024FFF7C4FA05463F4B54
:1023F0005B6A13F0020F21D1FFF7BCFA401B0228E1
:10240000F5D903202FE1394A136823F0F8036169F5
:1024100043EAC1031360DCE7354B00221A60FFF783
:10242000A9FA0546314B1B6813F0020FD1D0FFF714
:10243000A1FA401B0228F5D9032014E10120FFF77F
:1024400001FF236813F0040F00F09680274BDB692F
:1024500013F0805F34D1254BDA6942F08052DA61A3
:10246000DB6903F080530193019B0125214B1B681D
:1024700013F4807F26D0E368012B3DD0002B53D18D
:1024800003F1804303F504331A6A22F001021A6251
:102490001A6A22F004021A6233E0154B0022C3F8D4
:1024A0008024FFF767FA0546104B5B6A13F0020FB2
:1024B000C7D0FFF75FFA401B0228F5D90320D2E00E
:1024C0000025D3E70B4A136843F480731360FFF7CA
:1024D00051FA0646074B1B6813F4807FCBD1FFF7F8
:1024E00049FA801B6428F5D90320BCE000100240A3
:1024F00000004242007000405F4A136A43F001034B
:102500001362E36833B3FFF735FA06465A4B1B6A8A
:1025100013F0020F2FD1FFF72DFA801B41F2883301
:102520009842F3D903209EE0052B09D0524B1A6A3A
:1025300022F001021A621A6A22F004021A62E0E72B
:102540004D4B1A6A42F004021A621A6A42F0010202
:102550001A62D6E7FFF70EFA0646474B1B6A13F0DE
:10256000020F08D0FFF706FA801B41F28833984229
:10257000F3D9032077E0E5B9E369002B72D03E4A36
:10258000526802F00C02082A56D0022B17D03B4B9F
:1025900000221A66FFF7EEF90446374B1B6813F06A
:1025A000007F47D0FFF7E6F9001B0228F5D903208A
:1025B00059E0314AD36923F08053D361DCE72F4BD4
:1025C00000221A66FFF7D6F905462B4B1B6813F05D
:1025D000007F06D0FFF7CEF9401B0228F5D9032073
:1025E00041E0236AB3F5803F1AD023494B6823F4B6
:1025F0007413226A606A024313434B601F4B01222B
:102600001A66FFF7B7F904461B4B1B6813F0007FEF
:102610000ED1FFF7AFF9001B0228F5D9032022E005
:10262000154A536823F40033A1680B435360DCE779
:10263000002018E0002016E0012B16D00E4B5B683E
:1026400003F48031226A914211D103F47013626A5B
:1026500093420ED1002006E001207047012002E0E5
:10266000012000E0002002B070BD0120FBE7012046
:10267000F9E70120F7E700BF0010024000004242E6
:102680000F4B5B6803F00C02082A01D00D4870471D
:10269000C3F383420C49885C13F4803F0BD0084B92
:1026A0005B68C3F34043094AD35C064A02FB00F06F
:1026B000B0FBF3F07047064B03FB00F0704700BF20
:1026C0000010024000127A000C3500081C3500088A
:1026D00000093D00002800F0A08070B50D460446BA
:1026E000524B1B6803F007038B420BD24F4A13680F
:1026F00023F007030B431360136803F007038B42B7
:1027000040F08D80236813F0020F17D013F0040FF0
:1027100004D0474A536843F4E0635360236813F0DE
:10272000080F04D0424A536843F460535360404A50
:10273000536823F0F003A1680B435360236813F040
:10274000010F31D06368012B20D0022B25D0384AED
:10275000126812F0020F64D035494A6822F0030271
:1027600013434B60FFF706F90646314B5B6803F0F5
:102770000C036268B3EB820F16D0FFF7FBF8801BE7
:1027800041F288339842F0D9032045E0284A126884
:1027900012F4003FE0D101203EE0254A126812F019
:1027A000007FD9D1012037E0204B1B6803F00703DD
:1027B000AB420AD91D4A136823F007032B43136069
:1027C000136803F00703AB422DD1236813F0040F05
:1027D00006D0174A536823F4E063E1680B43536063
:1027E000236813F0080F07D0114A536823F460538D
:1027F000216943EAC1035360FFF742FF0C4B5B685A
:10280000C3F303130B4AD35CD8400B4B18600B4B3C
:102810001868FFF76BF8002070BD01207047012099
:10282000FAE70120F8E70120F6E700BF00200240A8
:1028300000100240F43400087800002080000020DE
:10284000014B1868704700BF7800002008B5FFF7FB
:10285000F7FF044B5B68C3F3C223034AD35CD84041
:1028600008BD00BF001002400435000870B582B0FA
:102870000446036813F0010F36D03F4BDB6913F0B9
:10288000805F49D13C4BDA6942F08052DA61DB6902
:1028900003F080530193019B0125384B1B6813F40F
:1028A000807F3BD0344B1B6A13F4407313D06268B3
:1028B00002F440729A420ED02F4A136A23F44070F9
:1028C0002F490126C1F840640026C1F84064106217
:1028D00013F0010F36D1284A136A23F4407361685C
:1028E0000B431362002D3ED1236813F0020F06D074
:1028F000214A536823F44043A1680B435360236883
:1029000013F0100F34D01C4A536823F48003E1689D
:102910000B43536000202CE00025BEE7174A1368E4
:1029200043F480731360FFF725F80646134B1B68CA
:1029300013F4807FB6D1FFF71DF8801B6428F5D90A
:10294000032016E0FFF716F806460B4B1B6A13F040
:10295000020FC0D1FFF70EF8801B41F28833984276
:10296000F3D9032005E0D36923F08053D361BBE79B
:10297000002002B070BD00BF001002400070004097
:102980000000424208B502284ED0102803D001288A
:1029900028D0002008BD2B4B5A68186810F08070B2
:1029A000F8D0C2F383432849C85C12F4803F15D0A5
:1029B000244B5B68C3F34043244AD25C244BB3FBF3
:1029C000F2F303FB00F01F4B5B6813F4800FE1D1BF
:1029D0004000204BA3FB00304008DBE71E4B03FB0D
:1029E00000F0F0E7174B1B6A40F202321A40B2F5D2
:1029F000817F24D003F44073B3F5007F04D0B3F596
:102A0000407F09D00020C5E70E4A526A12F0020F3B
:102A1000F5D049F64040BDE70A4B186810F4003085
:102A2000B8D04FF22440B5E7FFF710FF054B5B68C5
:102A3000C3F3813301335B00B0FBF3F0AAE74FF43B
:102A40000040A7E70010024020350008303500089C
:102A500000127A00ABAAAAAA00093D0010B4036ACA
:102A6000046A24F001040462846924F0F00C4CEA46
:102A7000021223F00A030B438261036210BC704709
:102A800030B4056A046A24F010040462846924F4F2
:102A9000407C4CEA022C2CF4704C1B039BB243EAA2
:102AA0000C0325F0A005090101F0A0012943836171
:102AB000016230BC704710B4036A046A24F0100449
:102AC0000462846924F4704C4CEA023223F0A003BF
:102AD00043EA01138261036210BC704730B4056A97
:102AE000046A24F480740462C46924F0030C4CEA80
:102AF000020C2CF0F00C1B01DBB243EA0C0325F4B2
:102B00000075090201F400712943C361016230BC00
:102B1000704730B4056A046A24F480540462C469BE
:102B200024F4407C4CEA022C2CF4704C1B039BB226
:102B300043EA0C0325F40055090301F4005129432D
:102B4000C361016230BC7047836823F070030B439C
:102B500043F00703836070477047000003681F4A13
:102B600090420AD0B0F1804F07D0A2F59432904243
:102B700003D002F58062904203D123F070034A68CB
:102B80001343164A90420AD0B0F1804F07D0A2F505
:102B90009432904203D002F58062904203D123F434
:102BA0004073CA68134323F080034A6913430360E8
:102BB0008B68C3620B688362084B98420AD001237A
:102BC0004361036913F0010F03D0036923F001038C
:102BD000036170470B690363F1E700BF002C0140FC
:102BE00040B310B5044690F83D30F3B1022384F8A9
:102BF0003D30214651F8040BFFF7B0FF012384F864
:102C0000463084F83E3084F83F3084F8403084F811
:102C1000413084F8423084F8433084F8443084F8FA
:102C2000453084F83D30002010BD80F83C30FEF780
:102C30000BFEDBE70120704740B310B5044690F867
:102C40003D30F3B1022384F83D30214651F8040BA6
:102C5000FFF784FF012384F8463084F83E3084F87F
:102C60003F3084F8403084F8413084F8423084F8B2
:102C7000433084F8443084F8453084F83D300020F7
:102C800010BD80F83C30FFF767FFDBE7012070479D
:102C900070B4056A046A24F0010404628469114E68
:102CA000B0420DD0B0F1804F0AD0A6F59436B042B4
:102CB00006D006F58066B04202D044F0010202E080
:102CC00024F00304224322F0F0021B01DBB2134381
:102CD00025F00A0201F00A0111438361016270BC10
:102CE000704700BF002C014038B590F83C30012BF4
:102CF0005AD004460D46012380F83C3052B1042AD4
:102D00001AD0082A2BD00C2A3BD00120002384F8AB
:102D10003C3038BDCB684A6809680068FFF7B8FFE7
:102D20002268936923F00C03936122689369A96870
:102D30000B4393610020E9E7CB684A6809680068A3
:102D4000FFF79EFE2268936923F440639361226833
:102D50009369A96843EA012393610020D6E7CB6811
:102D60004A6809680068FFF7B9FE2268D36923F052
:102D70000C03D3612268D369A9680B43D361002097
:102D8000C4E7CB684A6809680068FFF7C2FE22689A
:102D9000D36923F44063D3612268D369A96843EA05
:102DA0000123D3610020B1E70220B2E710B48468A8
:102DB00024F47F4C42EA03220A4342EA0C02826076
:102DC00010BC704790F83C30012B78D010B5044609
:102DD000012380F83C30022380F83D30026893687C
:102DE00023F47F4323F0770393600B68602B4CD070
:102DF00029D8402B54D00CD9502B22D1CA6849680D
:102E00000068FFF72BFE50212068FFF79DFE002091
:102E100005E0202B0DD009D9302B0AD00120012349
:102E200084F83D30002384F83C3010BD0BB1102BEA
:102E300005D119462068FFF787FE0020EFE7012043
:102E4000EDE70120EBE7B3F5805F34D0B3F5005F29
:102E50000CD1CB684A6889680068FFF7A7FF226831
:102E6000936843F4804393600020D8E7702B24D10B
:102E7000CB684A6889680068FFF798FF2268936802
:102E800043F0770393600020C9E7CA684968006887
:102E9000FFF711FE60212068FFF756FE0020BEE715
:102EA000CA6849680068FFF7D9FD40212068FFF72C
:102EB0004BFE0020B3E70020B1E70120AFE702207E
:102EC0007047000090F83C30012B2CD010B4012347
:102ED00080F83C30022380F83D3003685A689C68D3
:102EE00022F0700C0A6842EA0C025A6003680F4A2A
:102EF00093420AD0B3F1804F07D0A2F594329342A7
:102F000003D002F58062934204D124F080044A6821
:102F100014439C60012380F83D30002380F83C304E
:102F2000184610BC70470220704700BF002C0140BB
:102F3000014B1868704700BF8400002070B50D4E2B
:102F40000D4D761BB61006D0002455F8043B013415
:102F50009847A642F9D1094E094D00F09FFA761B19
:102F6000B61006D0002455F8043B01349847A64219
:102F7000F9D170BD0000000000000000000000005A
:102F800000000000830730B548D0541E002A3FD00F
:102F90000346CAB201E0013C3AD303F8012B9D0776
:102FA000F9D1032C2DD9CDB245EA05250F2C45EAE0
:102FB000054536D9A4F1100222F00F0C03F1200EC2
:102FC000E6444FEA121C03F1100242E9045542E9BB
:102FD000025510327245F8D10CF1010214F00C0FB9
:102FE00003EB021204F00F0C13D0ACF1040323F036
:102FF00003030433134442F8045B9342FBD10CF007
:1030000003042CB1CAB21C4403F8012B9C42FBD12F
:1030100030BD64461346002CF4D1F9E7034614464C
:10302000BFE71A46A446E0E7F8B504460D4600F0AF
:103030002FF8224606460F462B4620462946FEF725
:1030400001F898B90022002320462946FDF7F0FF39
:1030500060B90022002320462946FDF7C1FF40B198
:10306000FFF766FF22230026074F036030463946EC
:10307000F8BDFFF75DFF2122034604481A60BDE852
:10308000F84000F005BA00BF0000F0FF343500083A
:103090002DE9F04FB1F5801F02460B460F4687B071
:1030A00059DA044621F000452C4300F0F88000294D
:1030B000C0F232810022D64BFDF7E6F90F460B46EF
:1030C000D4496FF035048F42024648DC3E15C7F301
:1030D000130707F51521A6F2FF3601F6647101F416
:1030E0008011264406EB115681F07F5181F4401186
:1030F00041EA0703104619460022C74BFDF70CF8BA
:10310000BB1CC3F31303022B82468B462EDC00222A
:103110000023FDF765FF002800F0CA80002E00F0B4
:103120004B813046FDF746F9A5A3D3E900230646B7
:103130000F46FDF7A9F9A4A3D3E9002304460D46E1
:1031400030463946FDF7A0F902460B46204629468F
:10315000FCF7E4FF07E0AF4900248F42B6DD1046DC
:103160001946FCF7DBFF07B0BDE8F08FA7F5C223D7
:10317000A3F27A43002201934FF08043FCF7CEFF85
:103180000B46024659465046FDF7A8FA024630461D
:1031900014460D46FDF70EF922462B46CDE90401F3
:1031A00020462946CDE90245FDF76EF902460B4659
:1031B00080468946FDF768F985A3D3E900230446D4
:1031C0000D46FDF761F984A3D3E90023FCF7A6FFC0
:1031D00022462B46FDF758F981A3D3E90023FCF7DB
:1031E0009DFF22462B46FDF74FF97FA3D3E900232D
:1031F000FCF794FF42464B46FDF746F97CA3D3E922
:1032000000238046894620462946FDF73DF97AA3EA
:10321000D3E90023FCF782FF22462B46FDF734F961
:1032200077A3D3E90023FCF779FF22462B46FDF76D
:103230002BF90B46024649464046FCF76FFFC7F59F
:10324000D727019B51371F43002F8046894655DD04
:103250000022724B50465946FDF716F952465B461E
:10326000FDF712F904460D46002E5CD122462B468E
:1032700040464946FCF752FFDDE90223FDF704F919
:1032800002460B4620462946FCF746FF02460B46FF
:1032900050465946FCF740FF07B0BDE8F08F0022CA
:1032A000002300205E49FDF719FA07B0BDE8F08F52
:1032B00055A3D3E9002350465946FDF7E5F80246E9
:1032C0000B4600205549FCF727FF524604460D46A1
:1032D0005B4650465946FDF7D7F802460B46204656
:1032E0002946FDF7D1F804460D46002E50D102467E
:1032F0000B4650465946FCF70FFF34E7002E40F0CE
:10330000918002460B4650465946FCF705FFDDE921
:103310000223FDF7B9F8B9E7FCF7FEFE002200230F
:10332000FDF7DCF91FE726A3D3E90023DDE904015B
:10333000FDF7AAF822462B4606460F464046494668
:10334000FCF7ECFEDDE90223FDF79EF81EA3D3E9AE
:10335000002380468946DDE90401FDF795F8024621
:103360000B4640464946FCF7D9FE02460B4620462E
:103370002946FCF7D1FE52465B46FCF7CDFE0246DD
:103380000B4630463946FCF7C7FE07B0BDE8F08F64
:103390003046FDF70FF80AA3D3E90023804689469B
:1033A000FDF772F808A3D3E9002306460F4640460E
:1033B0004946FDF769F8D8E700200021D3E600BFB1
:1033C0000000E0FE422EE63F763C7935EF39EA3DDB
:1033D00044523EDF12F1C23FDE03CB966446C73F44
:1033E000599322942449D23F935555555555E53F5D
:1033F0009FC678D0099AC33FAF788E1DC571CC3F68
:1034000004FA97999999D93F555555555555D53F32
:1034100000005043FFFFEF7F0000F03F0000E03F5F
:10342000000050C316A3D3E90023DDE90401FDF732
:103430002BF842464B4604460D4650465946FCF78B
:103440006BFEDDE90223FDF71FF80FA3D3E900238C
:1034500006460F46DDE90401FDF716F802460B4665
:1034600030463946FCF758FE52465B46FCF754FEA0
:1034700002460B4620462946FCF74EFE73E600BF87
:103480000000E0FE422EE63F763C7935EF39EA3D1A
:1034900000200149704700BF0000F87FF8B500BF69
:1034A000F8BC08BC9E467047F8B500BFF8BC08BC25
:0434B0009E4670477D
:1034B4000100020004000800100020000040002069
:1034C4000010000800040002000180004000000019
:1034D40040008000000100020004000800100020E9
:1034E400004000807E306D79335B5F707F7B00002D
:1034F40000000000000000000102030406070809A0
:103504000000000001020304020304050607080981
:103514000A0B0C0D0E0F101001020000020304052B
:10352400060708090A0B0C0D0E0F1010010200000B
:043534000000000093
:1035380000082000000120000004200000022000F4
:1035480000400200002002000010020000080200F3
:103558000004020000020200000102000040040012
:103568000020040000100400000804000004040007
:103578000002040000010400800004004000040070
:103588008000080040000800010000000040200002
:10359800002020000010200000E07645005043473E
:1035A800005043473333534000127A0001000000B3
:1035B80010000000880000200000000074030020B4
:1035C800DC0300204404002000000000000000008C
:1035D80000000000000000000000000000000000E3
:1035E80000000000000000000000000000000000D3
:1035F80000000000000000000000000000000000C3
:1036080000000000000000000000000000000000B2
:1036180000000000000000000000000000000000A2
:103628000000000000000000000000000000000092
:103638000000000000000000000000000000000082
:103648000000000000000000000000000000000072
:103658000000000000000000000000000000000062
:1036680001000000000000000E33CDAB34126DE6FF
:10367800ECDE05000B000000000000000000000068
:103688000000000000000000000000000000000032
:103698000000000000000000000000000000000022
:1036A8000000000000000000000000000000000012
:1036B8000000000000000000000000000000000002
:04000005080018A136
:00000001FF
